:040000008CEF00F091
:06000800418275ED02F0DB
:100018004180D8CF1AF0E8CF1BF0E0CF1CF0FACF20
:100028001DF0FBCF1EF0E9CF1FF0EACF20F0E1CFA3
:1000380021F0E2CF22F0D9CF23F0DACF24F0F3CFAA
:1000480025F0F4CF26F0F6CF27F0F7CF28F0F8CF39
:1000580029F0F5CF2AF03DC089FF3CC08BFF9E9266
:100068003F0E3A18D8A403D0000E3A6E23D03A2A8D
:1000780021D03A50010DBE0EF324F66E7F0EF42007
:10008800F76E0800F5CF3DF03D50DCEC05F010D0E0
:100098001E0E3A6404D0000E3D6E000E09D03D6875
:1000A800C30E06D03D50040F3D6E3D50DCEC05F00C
:1000B8003C6E0AD03E50010AD8B4DBD7030AD8B444
:1000C800E7D7010AD8B4EED72AC0F5FF29C0F8FF50
:1000D80028C0F7FF27C0F6FF26C0F4FF25C0F3FFAE
:1000E80024C0DAFF23C0D9FF22C0E2FF21C0E1FF0C
:1000F80020C0EAFF1FC0E9FF1EC0FBFF1DC0FAFFBA
:100108001CC0E0FF1BC0E8FF1AC0D8FF41901000D8
:1001180025EF06F031C062F032C063F033C064F0FE
:10012800000E0001666F020E0001666501D018D04E
:1001380000016651010D620EF324D96E000EF42001
:10014800DA6E00016651010D340EF324E16E000EE3
:10015800F420E26EE750300FDF6E0001662BE3D724
:100168006DEC06F08AD0200EB5EC05F0530EB5EC18
:1001780005F0650EB5EC05F0EE0EB5EC05F0610E78
:10018800B5EC05F06C0EB5EC05F0200EB5EC05F0FD
:10019800530EB5EC05F0650EB5EC05F06E0EB5EC3A
:1001A80005F06F0EB5EC05F0690EB5EC05F0640EC0
:1001B800B5EC05F0610EB5EC05F06C0EB5EC05F08C
:1001C80066D0200EB5EC05F0530EB5EC05F0650EC3
:1001D800B5EC05F0EE0EB5EC05F0610EB5EC05F0EA
:1001E8006C0EB5EC05F0200EB5EC05F0430EB5EC41
:1001F80005F0750EB5EC05F0610EB5EC05F0640E72
:10020800B5EC05F0720EB5EC05F0610EB5EC05F035
:10021800640EB5EC05F0610EB5EC05F038D0200E93
:10022800B5EC05F0530EB5EC05F0650EB5EC05F030
:10023800EE0EB5EC05F0610EB5EC05F06C0EB5EC04
:1002480005F0200EB5EC05F0440EB5EC05F02E0EC9
:10025800B5EC05F0530EB5EC05F0690EB5EC05F0FC
:10026800650EB5EC05F0720EB5EC05F0720EB5EC46
:1002780005F0610EB5EC05F00AD03E50010AD8B47D
:1002880072D7030AD8B49DD7010AD8B4C8D769EC85
:1002980006F0200EB5EC05F0200EB5EC05F0460E84
:1002A800B5EC05F0720EB5EC05F0650EB5EC05F091
:1002B800630EB5EC05F03A0EB5EC05F0200EB5EC82
:1002C80005F0000E0001656F020E0001656501D0A2
:1002D8000FD000016551010D620EF324D96E000E96
:1002E800F420DA6EDF50B5EC05F00001652BECD791
:1002F800200EB5EC05F0480EB5EC05F07A0EB5EC1D
:1003080005F0120031C003F032C004F033C005F02C
:10031800000E076E020E076401D015D00750010DBC
:10032800030EF324D96E000EF420DA6E0750010D87
:10033800340EF324E16E000EF420E26EE750300F25
:10034800DF6E072AE7D775EC06F08AD0200EEFECAF
:1003580005F0530EEFEC05F0650EEFEC05F0EE0E30
:10036800EFEC05F0610EEFEC05F06C0EEFEC05F02C
:10037800200EEFEC05F0530EEFEC05F0650EEFECF8
:1003880005F06E0EEFEC05F06F0EEFEC05F0690E60
:10039800EFEC05F0640EEFEC05F0610EEFEC05F004
:1003A8006C0EEFEC05F066D0200EEFEC05F0530E66
:1003B800EFEC05F0650EEFEC05F0EE0EEFEC05F056
:1003C800610EEFEC05F06C0EEFEC05F0200EEFEC93
:1003D80005F0430EEFEC05F0750EEFEC05F0610E3D
:1003E800EFEC05F0640EEFEC05F0720EEFEC05F0A3
:1003F800610EEFEC05F0640EEFEC05F0610EEFEC2A
:1004080005F038D0200EEFEC05F0530EEFEC05F0B8
:10041800650EEFEC05F0EE0EEFEC05F0610EEFEC7B
:1004280005F06C0EEFEC05F0200EEFEC05F0440E35
:10043800EFEC05F02E0EEFEC05F0530EEFEC05F0A7
:10044800690EEFEC05F0650EEFEC05F0720EEFECBF
:1004580005F0720EEFEC05F0610EEFEC05F00AD036
:100468003E50010AD8B472D7030AD8B49DD7010AFE
:10047800D8B4C8D771EC06F0200EEFEC05F0200ECA
:10048800EFEC05F0460EEFEC05F0720EEFEC05F020
:10049800650EEFEC05F0630EEFEC05F03A0EEFECAD
:1004A80005F0200EEFEC05F0000E066E020E066455
:1004B80001D00DD00650010D030EF324D96E000EA5
:1004C800F420DA6EDF50EFEC05F0062AEFD7200EA5
:1004D800EFEC05F0480EEFEC05F07A0EEFEC05F0C6
:1004E80012000600FACF08F0FBCF09F0E9CF0AF0B6
:1004F800EACF0BF0E1CF0CF0E2CF0DF0D9CF0EF040
:10050800DACF0FF0F3CF10F0F4CF11F0F6CF12F0EE
:10051800F7CF13F0F8CF14F0F5CF15F0000E166EE4
:10052800000E406EF2A063D081CF16F0F00E1616C2
:10053800F00E1618D8B458D019EC03F0800E4018F5
:10054800D8A43FD051D0010E3E6E86EC01F03EC0DB
:1005580001F0010E14EC06F047D0020E3E6E86EC58
:1005680001F03EC001F0010E14EC06F03DD0030E80
:100578003E6E86EC01F03EC001F0010E14EC06F070
:10058800000E3D6E000E3C6E2FD059EC04F098EC36
:1005980005F086EC01F03FC001F0000E14EC06F007
:1005A800A2EC04F0000E376E000E386E000E396EA5
:1005B800CA841AD038C037F039C038F040C039F092
:1005C80013D040500A0AD8B4BED7010AD8B4C5D748
:1005D800070AD8B4CCD7010AD8B4D7D7030AD8B4F5
:1005E80003D0010AD8A4E6D7F00E8A6EF29015C09F
:1005F800F5FF14C0F8FF13C0F7FF12C0F6FF11C0D3
:10060800F4FF10C0F3FF0FC0DAFF0EC0D9FF0DC012
:10061800E2FF0CC0E1FF0BC0EAFF0AC0E9FF09C016
:10062800FBFF08C0FAFF41921100000E016E800E18
:10063800406EF70E8A6E81CF01F0F00E0116700E33
:100648000118D8A403D0010E406E1200B00E011894
:10065800D8A403D0040E406E1200D00E0118D8A4FE
:1006680003D0070E406E1200E00E0118D8A403D084
:100678000F0E406E1200FB0E8A6E00D000D081CFA4
:1006880001F0F00E0116700E0118D8A403D0020E66
:10069800406E1200B00E0118D8A403D0050E406EAB
:1006A8001200D00E0118D8A403D0080E406E120014
:1006B800E00E0118D8A403D0000E406E1200FD0E03
:1006C8008A6E81CF01F0F00E0116700E0118D8A4C1
:1006D80003D0030E406E1200B00E0118D8A403D048
:1006E800060E406E1200D00E0118D8A403D0090ED1
:1006F800406E1200E00E0118D8A403D00E0E406E12
:100708001200FE0E8A6E81CF01F0F00E0116700EF7
:100718000118D8A403D00A0E406E1200B00E0118BA
:10072800D8A403D00B0E406E1200D00E0118D8A426
:1007380003D00C0E406E1200E00E0118D8A412006F
:100748000D0E406E1200000E0001646F000E636F04
:100758003FC063F00001646B2BC060F02CC061F0F7
:100768002DC062F00CD09C0E000163250001636F60
:10077800FF0E000164210001646F0001602B00017D
:1007880064BF15D000016451EEE1650E0001635DA0
:10079800D8A00DD0E8D7F60E000163250001636FDD
:1007A800FF0E000164210001646F0001612B00014C
:1007B80064BF15D000016451EEE10B0E0001635DCA
:1007C800D8A00DD0E8D7FF0E000163250001636FA4
:1007D800FF0E000164210001646F0001622B00011B
:1007E80064BF07D000016451EEE100016305D8B091
:1007F800EAD760C034F061C035F062C036F012004C
:10080800000E0001646F3FC064F0000164510001F4
:10081800D8B406D00D0E0001646102D03A0E23D080
:100828000C0E0001646506D0190E0001646102D047
:10083800480E19D0180E0001646506D03D0E00015F
:10084800646102D0200E0FD03C0E0001646506D012
:100858007A0E0001646102D0080E05D0790E0001FD
:10086800646503D002D0CA6E02D0000EFCD7FF0E1A
:100878000001606FFF0E0001616F0001645100010B
:10088800626F636B000160510001622700016151D2
:1008980000016323BF0E00016225F66E7E0E632100
:1008A800F76E0800F5CFCBFF1200000E016E000EA8
:1008B800026E000E036E020E036401D00FD00350C7
:1008C800010D370EF324D96E000EF420DA6EDF50D6
:1008D800D8B402D0010E016E032AEDD7020E376498
:1008E80001D00FD0020E3718D8A40DD0050E3864E9
:1008F80001D007D0050E3818D8A405D0050E3964E4
:1009080002D0010E026E0150D8A407D0000E346E3A
:10091800000E356E010E366E12000204D8A407D000
:10092800020E346E050E356E050E366E120037C097
:1009380034F038C035F039C036F01200000E056EBC
:100948003FC005F00550D8B405D00D0E056002D0A3
:100958003A0E1CD00C0E056405D0190E056002D0A5
:10096800480E14D0180E056405D03D0E056002D05F
:10097800200E0CD03C0E056405D07A0E056002D01E
:10098800080E04D0790E056403D002D0CA6E02D0D6
:10099800000EFCD7FF0E016EFF0E026E0550036EAF
:1009A800046A0150032602500422BF0E0324F66E87
:1009B8007E0E0420F76E0800F5CFCBFF1200680EFC
:1009C8000001626FE40EE82EFED7622FFCD700F01C
:1009D80032EC06F0300EC9EC05F01A0E0001626F19
:1009E800F80EE82EFED7622FFCD700F0300EC9ECC7
:1009F80005F01A0E0001626FF80EE82EFED7622F7E
:100A0800FCD700F0300EC9EC05F01A0E0001626F39
:100A1800F80EE82EFED7622FFCD700F03F0EC9EC87
:100A280005F00C0EC9EC05F0060EC9EC05F0010E38
:100A3800C9EC05F01200000E0001676F730E5FEC41
:100A480006F03FEC06F056EC06F0E3EC04F0010E7D
:100A58004BEC06F00001676F00016705D8B40AD0B7
:100A6800020E00016719D8B405D0030E00016719FA
:100A7800D8A403D067C03EF002D0030E3E6E000E2D
:100A88004BEC06F03F6EA7EC03F0F28EF28CD08EA2
:100A98008EEC00F004EC04F064EC06F0FFD7010ED5
:100AA8000001606F956817D08D908D82060EE82E34
:100AB800FED700D08D84060EE82EFED700D083CF57
:100AC80060F0060EE82EFED700D08D940001604538
:100AD800010B0001606F000160510001D8A4E4D748
:100AE800000E956E8D921200010E016E956815D05C
:100AF8008D908D82060EE82EFED700D08D84060ECE
:100B0800E82EFED700D083CF01F0060EE82EFED7E0
:100B180000D08D940144010B016E0150D8A4E8D790
:100B2800000E956E8D9212002EC002F02FC003F0B9
:100B380030C004F0000E016E34C002F035C003F07E
:100B480036C004F00250640DF3CF02F003500A0DD2
:100B5800F3CF03F0035004240224016E01C03FF0D8
:100B680012000001616F61C08CFF8D808D92060EAE
:100B7800E82EFED700D08D84060EE82EFED700D0D2
:100B88008D948D9053EC05F012000001616F61C0E7
:100B98008CFF8D908D92060EE82EFED700D08D84A6
:100BA800060EE82EFED700D08D9453EC05F0120007
:100BB800176E000E186E000E196E1750C00B186EC7
:100BC8001750300B196E19380F0B196E1850191071
:100BD800186E18501200026E02C08CFF8D808D9224
:100BE800060EE82EFED700D08D84060EE82EFED71E
:100BF80000D08D948D9078EC05F01200026E02C042
:100C08008CFF8D908D92060EE82EFED700D08D8435
:100C1800060EE82EFED700D08D9478EC05F0120071
:100C2800026E02C0A9FF01C0A8FFA69EA69CA684CA
:100C3800550EA76EAA0EA76EA682A6B2FED7A694D8
:100C4800120000EE2BF0160EEE6AE806FDE1419068
:100C58004192000EF86E00011FEF05F0000E956E30
:100C6800000E966E000E8C6E000E8D6E3F0EBD1639
:100C7800C69A639812000F0EC16E070EB46EB59E29
:100C8800B59C6D96F00E926E3C0E946E12000001AB
:100C9800606F60C0A9FFA69EA69CA680A6B0FED7DE
:100CA800A8501200F00E936EF19EF180F00E8A6E3D
:100CB800F290F28612000001606F60C0D3FF12004C
:100CC8009F929D829E92CA841200C00EC9EC05F0C4
:100CD8001200010EC9EC05F01200C00E02EC06F07D
:0A0CE8001200010E02EC06F01200EB
:107EBE0000F379503C3028221E1A171513EFDECF2F
:107ECE00C2B7ADA39B948D8781F9EFE6DED7CFC9FC
:107EDE00C2BCB7B2ADA8A39F9B9794908D8A87849E
:107EEE00817F7C7A777573716F6D6B6967FFFBF7B6
:107EFE00F3EFECE8E5E1DEDBD8D5D2CFCDCAC7C5CE
:107F0E00C2C0BEBBB9B7B5B3B1AFADABA9A7A5A340
:107F1E00A2A09E9D9B9A989795949291908E8D8CEF
:107F2E008B898887868583828180FFFDFBF9F7F533
:107F3E00F3F1EFEEECEAE8E6E5E3E1E0DEDDDBDAD5
:107F4E00D8D7D5D4D2D1CFCECDCBCAC9C7C6C5C44A
:107F5E00C2C1C0BFBEBCBBBAB9B8B7B6B5B4B3B276
:107F6E00B1B0AFAEADACABAAA9A8A7A6A5A4A3A36A
:107F7E00A2A1A09F9E9E9D9C9B9A9A999897979638
:107F8E009595949392929190908F8E8E8D8C8C8BE2
:107F9E008B8A898988878786868585848383828272
:107FAE00818180807F7F7E7E7D7D7C7C7B7B7A79EC
:107FBE00808C98A5B0BCC6D0DAE2EAF0F5FAFDFEE8
:107FCE00FFFEFDFAF5F0EAE2DAD0C6BCB0A5988C59
:107FDE008073675B4F43392F251D160F0A0502016B
:107FEE00000102050A0F151D252F39434F5A6773DD
:017FFE000082
:020000040020DA
:08000000FFFFFFFFFFFFFFFF00
:020000040030CA
:0E00000000081F1EFF8081FF0FC00FE00F40A1
:00000001FF
